{
  "contractName": "Lottery",
  "abi": [
    {
      "inputs": [],
      "stateMutability": "nonpayable",
      "type": "constructor"
    },
    {
      "inputs": [],
      "name": "lotteryId",
      "outputs": [
        {
          "internalType": "uint256",
          "name": "",
          "type": "uint256"
        }
      ],
      "stateMutability": "view",
      "type": "function",
      "constant": true
    },
    {
      "inputs": [],
      "name": "owner",
      "outputs": [
        {
          "internalType": "address",
          "name": "",
          "type": "address"
        }
      ],
      "stateMutability": "view",
      "type": "function",
      "constant": true
    },
    {
      "inputs": [
        {
          "internalType": "uint256",
          "name": "",
          "type": "uint256"
        }
      ],
      "name": "winners",
      "outputs": [
        {
          "internalType": "address",
          "name": "",
          "type": "address"
        }
      ],
      "stateMutability": "view",
      "type": "function",
      "constant": true
    },
    {
      "inputs": [],
      "name": "enter",
      "outputs": [],
      "stateMutability": "payable",
      "type": "function",
      "payable": true
    },
    {
      "inputs": [],
      "name": "getPlayers",
      "outputs": [
        {
          "internalType": "address payable[]",
          "name": "",
          "type": "address[]"
        }
      ],
      "stateMutability": "view",
      "type": "function",
      "constant": true
    },
    {
      "inputs": [],
      "name": "getBalance",
      "outputs": [
        {
          "internalType": "uint256",
          "name": "",
          "type": "uint256"
        }
      ],
      "stateMutability": "view",
      "type": "function",
      "constant": true
    },
    {
      "inputs": [],
      "name": "getLotteryId",
      "outputs": [
        {
          "internalType": "uint256",
          "name": "",
          "type": "uint256"
        }
      ],
      "stateMutability": "view",
      "type": "function",
      "constant": true
    },
    {
      "inputs": [],
      "name": "getRandomNumber",
      "outputs": [
        {
          "internalType": "uint256",
          "name": "",
          "type": "uint256"
        }
      ],
      "stateMutability": "view",
      "type": "function",
      "constant": true
    },
    {
      "inputs": [],
      "name": "pickWinner",
      "outputs": [],
      "stateMutability": "nonpayable",
      "type": "function"
    },
    {
      "inputs": [],
      "name": "getWinners",
      "outputs": [
        {
          "internalType": "address[]",
          "name": "",
          "type": "address[]"
        }
      ],
      "stateMutability": "view",
      "type": "function",
      "constant": true
    }
  ],
  "bytecode": "0x608060405234801561001057600080fd5b50336000806101000a81548173ffffffffffffffffffffffffffffffffffffffff021916908373ffffffffffffffffffffffffffffffffffffffff1602179055506000600381905550610b18806100686000396000f3fe6080604052600436106100915760003560e01c8063a2fb117511610059578063a2fb117514610159578063dbdff2c114610196578063df15c37e146101c1578063e580f47b146101ec578063e97dcb621461021757610091565b806312065fe0146100965780635d495aea146100c15780638b5b9ccc146100d85780638da5cb5b14610103578063900aafaf1461012e575b600080fd5b3480156100a257600080fd5b506100ab610221565b6040516100b891906106a0565b60405180910390f35b3480156100cd57600080fd5b506100d6610229565b005b3480156100e457600080fd5b506100ed6103ec565b6040516100fa91906107ab565b60405180910390f35b34801561010f57600080fd5b5061011861047a565b60405161012591906107ee565b60405180910390f35b34801561013a57600080fd5b5061014361049e565b60405161015091906106a0565b60405180910390f35b34801561016557600080fd5b50610180600480360381019061017b919061083a565b6104a8565b60405161018d91906107ee565b60405180910390f35b3480156101a257600080fd5b506101ab6104e7565b6040516101b891906106a0565b60405180910390f35b3480156101cd57600080fd5b506101d661053b565b6040516101e39190610925565b60405180910390f35b3480156101f857600080fd5b506102016105c9565b60405161020e91906106a0565b60405180910390f35b61021f6105cf565b005b600047905090565b60008054906101000a900473ffffffffffffffffffffffffffffffffffffffff1673ffffffffffffffffffffffffffffffffffffffff163373ffffffffffffffffffffffffffffffffffffffff161461028157600080fd5b60006001805490506102916104e7565b61029b9190610976565b9050600181815481106102b1576102b06109a7565b5b9060005260206000200160009054906101000a900473ffffffffffffffffffffffffffffffffffffffff1673ffffffffffffffffffffffffffffffffffffffff166108fc479081150290604051600060405180830381858888f19350505050158015610321573d6000803e3d6000fd5b50600260018281548110610338576103376109a7565b5b9060005260206000200160009054906101000a900473ffffffffffffffffffffffffffffffffffffffff169080600181540180825580915050600190039060005260206000200160009091909190916101000a81548173ffffffffffffffffffffffffffffffffffffffff021916908373ffffffffffffffffffffffffffffffffffffffff160217905550600160006103d19190610649565b600360008154809291906103e490610a05565b919050555050565b6060600180548060200260200160405190810160405280929190818152602001828054801561047057602002820191906000526020600020905b8160009054906101000a900473ffffffffffffffffffffffffffffffffffffffff1673ffffffffffffffffffffffffffffffffffffffff1681526020019060010190808311610426575b5050505050905090565b60008054906101000a900473ffffffffffffffffffffffffffffffffffffffff1681565b6000600354905090565b600281815481106104b857600080fd5b906000526020600020016000915054906101000a900473ffffffffffffffffffffffffffffffffffffffff1681565b60008060009054906101000a900473ffffffffffffffffffffffffffffffffffffffff164260405160200161051d929190610ab6565b6040516020818303038152906040528051906020012060001c905090565b606060028054806020026020016040519081016040528092919081815260200182805480156105bf57602002820191906000526020600020905b8160009054906101000a900473ffffffffffffffffffffffffffffffffffffffff1673ffffffffffffffffffffffffffffffffffffffff1681526020019060010190808311610575575b5050505050905090565b60035481565b67016345785d8a00003410156105e457600080fd5b6001339080600181540180825580915050600190039060005260206000200160009091909190916101000a81548173ffffffffffffffffffffffffffffffffffffffff021916908373ffffffffffffffffffffffffffffffffffffffff160217905550565b5080546000825590600052602060002090810190610667919061066a565b50565b5b8082111561068357600081600090555060010161066b565b5090565b6000819050919050565b61069a81610687565b82525050565b60006020820190506106b56000830184610691565b92915050565b600081519050919050565b600082825260208201905092915050565b6000819050602082019050919050565b600073ffffffffffffffffffffffffffffffffffffffff82169050919050565b6000610712826106e7565b9050919050565b61072281610707565b82525050565b60006107348383610719565b60208301905092915050565b6000602082019050919050565b6000610758826106bb565b61076281856106c6565b935061076d836106d7565b8060005b8381101561079e5781516107858882610728565b975061079083610740565b925050600181019050610771565b5085935050505092915050565b600060208201905081810360008301526107c5818461074d565b905092915050565b60006107d8826106e7565b9050919050565b6107e8816107cd565b82525050565b600060208201905061080360008301846107df565b92915050565b600080fd5b61081781610687565b811461082257600080fd5b50565b6000813590506108348161080e565b92915050565b6000602082840312156108505761084f610809565b5b600061085e84828501610825565b91505092915050565b600081519050919050565b600082825260208201905092915050565b6000819050602082019050919050565b61089c816107cd565b82525050565b60006108ae8383610893565b60208301905092915050565b6000602082019050919050565b60006108d282610867565b6108dc8185610872565b93506108e783610883565b8060005b838110156109185781516108ff88826108a2565b975061090a836108ba565b9250506001810190506108eb565b5085935050505092915050565b6000602082019050818103600083015261093f81846108c7565b905092915050565b7f4e487b7100000000000000000000000000000000000000000000000000000000600052601260045260246000fd5b600061098182610687565b915061098c83610687565b92508261099c5761099b610947565b5b828206905092915050565b7f4e487b7100000000000000000000000000000000000000000000000000000000600052603260045260246000fd5b7f4e487b7100000000000000000000000000000000000000000000000000000000600052601160045260246000fd5b6000610a1082610687565b91507fffffffffffffffffffffffffffffffffffffffffffffffffffffffffffffffff8203610a4257610a416109d6565b5b600182019050919050565b60008160601b9050919050565b6000610a6582610a4d565b9050919050565b6000610a7782610a5a565b9050919050565b610a8f610a8a826107cd565b610a6c565b82525050565b6000819050919050565b610ab0610aab82610687565b610a95565b82525050565b6000610ac28285610a7e565b601482019150610ad28284610a9f565b602082019150819050939250505056fea2646970667358221220ea621363805b53a7e10a846d13bb27651c0194f423f81f6949b734f5f54077a564736f6c634300080f0033",
  "immutableReferences": {},
  "source": "//SPDX-License-Identifier: MIT\r\npragma solidity ^0.8.15;\r\n\r\ncontract Lottery {\r\n    //State /storage variable\r\n\r\n    address public owner;\r\n    address payable[] players;\r\n    address[] public winners;\r\n\r\n    uint public lotteryId;\r\n\r\n    //constructor -> this runs when the contract is deployed\r\n    constructor () {\r\n        owner = msg.sender;\r\n        lotteryId = 0;\r\n    }\r\n\r\n    //Enter function\r\n    function enter() public payable {\r\n        require(msg.value >= 0.1 ether);\r\n        players.push(payable(msg.sender));\r\n    }\r\n\r\n    //Get players\r\n    function getPlayers() public view returns(address payable[] memory) {\r\n        return players;\r\n    }\r\n\r\n    //Get balance\r\n    function getBalance() public view returns (uint) {\r\n        return address(this).balance;\r\n    }\r\n\r\n    //Get Lottery ID\r\n    function getLotteryId() public view returns (uint) {\r\n        return lotteryId;\r\n    }\r\n\r\n    //Get random number (will help us in picking the winners )\r\n    function getRandomNumber() public view returns (uint) {\r\n        return uint(keccak256(abi.encodePacked(owner, block.timestamp)));\r\n    }\r\n\r\n    //Pick Winner!!!\r\n    function pickWinner() public {\r\n        require(msg.sender == owner);\r\n        uint randomIndex = getRandomNumber() % players.length;\r\n        players[randomIndex].transfer(address(this).balance);\r\n        winners.push(players[randomIndex]);\r\n        //Delete all the players list [player1, player2] -> []\r\n        delete players;\r\n        //Updating the contract id\r\n        lotteryId++;\r\n\r\n    }\r\n\r\n     //Get Winners\r\n     function getWinners() public view returns (address[] memory) {\r\n         return winners;\r\n     }\r\n    \r\n}",
  "sourcePath": "e:\\Web3\\Projects\\lottery-dapp-youtube\\backend\\contracts\\Lottery.sol",
  "compiler": {
    "name": "solc",
    "version": "0.8.15+commit.e14f2714.Emscripten.clang"
  },
  "schemaVersion": "3.4.10",
  "updatedAt": "2022-10-21T15:40:09.653Z",
  "networkType": "ethereum",
  "devdoc": {
    "kind": "dev",
    "methods": {},
    "version": 1
  },
  "userdoc": {
    "kind": "user",
    "methods": {},
    "version": 1
  }
}